:0400000028EF0BF0EA
:100F000000FC16C616B61670103811F0166E125682
:100F1000174E1746173E1736172E172617E416ECEE
:100F200012006BEC0BF0000E3C6E010E3D6E3A0EA3
:100F30003E6E290E3F6E300E286E310E296E320E37
:100F40002A6E500EF0EC08F0E806D8B4AAEF07F0CD
:100F5000ACEF07F0A1EF07F03C0E016E026A000E45
:100F6000046E040E036EF6EC0AF0000E12EC0AF0AA
:100F7000CCEC0AF0E806D8B4C0EF07F0C2EF07F0F7
:100F8000B8EF07F01A0E136E5E0E126E6E0EE82E9C
:100F9000FED7122EFCD7132EFAD700D0500EF0EC4D
:100FA00008F0E806D8B4D7EF07F0D9EF07F0CEEF96
:100FB00007F03C0E016E026A000E046E020E036E14
:100FC000F6EC0AF0000E12EC0AF0140E016E026A42
:100FD000000E046E020E036EF6EC0AF0010E12EC27
:100FE0000AF0CCEC0AF0E806D8B4F9EF07F0FBEF12
:100FF00007F0F1EF07F01A0E136E5E0E126E6E0E12
:10100000E82EFED7122EFCD7132EFAD700D0280ECA
:10101000F0EC08F0E806D8B410EF08F012EF08F092
:1010200007EF08F0140E016E026A000E046E020E45
:10103000036EF6EC0AF0000E12EC0AF0CCEC0AF0AB
:10104000E806D8B426EF08F028EF08F01EEF08F005
:101050001A0E136E5E0E126E6E0EE82EFED7122E54
:10106000FCD7132EFAD700D0A1EF07F000EF00F065
:1010700040EC0BF00009D8B440EF08F042EF08F064
:101080007FEF08F050EF08F0ABEC0BF09BEF08F0AF
:10109000A7EC0BF09BEF08F09FEC0BF09BEF08F038
:1010A00072C00AF073C00BF020EE66F002D863EF56
:1010B00008F00500FA6EDE50FD6EDE50FE6EF85050
:1010C000FF6EFA5012000D6E0E6A0E50000AD8B470
:1010D0006CEF08F04CEF08F00D50010AD8B44CEF5B
:1010E00008F0030AD8B444EF08F0010AD8B448EF76
:1010F00008F0070AD8B44CEF08F04CEF08F00001F4
:1011000083917DC0D9FF7EC0DAFF7D4B7E2BDF50FF
:10111000AFEC0BF000017F07D8A080077F51801152
:10112000D8A495EF08F097EF08F09AEF08F0060EB4
:101130009BEF08F0030E1200BBEC0BF07DC0D9FF53
:101140007EC0DAFFDF6E00017D4B7E2B7F07D8A0CB
:1011500080077F518011D8B4B0EF08F0B2EF08F0EB
:10116000B7EF08F0B3EC0BF0050EEFEF08F0838754
:10117000C2EF08F093EC0BF0EFEF08F097EC0BF0F8
:10118000EFEF08F06CC00AF06DC00BF002D8D3EF9F
:1011900008F00500FA6E6051FD6E6151FE6EF85068
:1011A000FF6EFA5012000D6E0E6A0E50000AD8B48F
:1011B000DCEF08F0BEEF08F00D50010AD8B4BEEF26
:1011C00008F0030AD8B4BAEF08F0010AD8B4BAEFAD
:1011D00008F0070AD8B4BEEF08F0BEEF08F012001E
:1011E000016E010E026E000183B5F9EF08F0FBEF0E
:1011F00008F035EF09F001C07CF08393838583917B
:101200000E0E816F010E7B6FF40E7A6F8387820E54
:10121000606F170E616F000E6C6F000E6D6F820EA7
:10122000626F170E636F000E6E6F000E6F6F820E8F
:10123000646F170E656F000E706F000E716F820E77
:10124000666F170E676F000E726F000E736F7E0E63
:10125000686F170E696F000E746F000E756FCDEC1E
:101260000BF008EC0BF0000E026E025012000001B1
:10127000838748EF09F0A3EC0BF075EF09F0B9ECA8
:101280000BF0030E75EF09F09FEC0BF075EF09F012
:101290006CC00AF06DC00BF002D859EF09F00500E0
:1012A000FA6E6051FD6E6151FE6EF850FF6EFA509D
:1012B00012000D6E0E6A0E50000AD8B462EF09F0EB
:1012C00044EF09F00D50010AD8B444EF09F0030AC5
:1012D000D8B43BEF09F0010AD8B43BEF09F0070A94
:1012E000D8B43FEF09F044EF09F0120000018391F8
:1012F000020E826F84EF09F0A3EC0BF0ABEF09F064
:101300009FEC0BF0ABEF09F070C00AF071C00BF06E
:1013100020EE64F002D897EF09F00500FA6EDE5077
:10132000FD6EDE50FE6EF850FF6EFA5012000D6E2C
:101330000E6A0E50000AD8B4A0EF09F080EF09F051
:101340000D50020AD8B47CEF09F0010AD8B47CEF42
:1013500009F080EF09F01200CDEC0BF0000183A141
:10136000B4EF09F0B6EF09F0C3EF09F040EC0BF071
:101370000009D8B4BEEF09F0C0EF09F0C3EF09F0DF
:101380000F0E0001816F00018151020DF350010F1A
:101390000F6E0FC0F6FF0F0EF76E02D8DCEF09F0EC
:1013A0000500FA6E0900F550FD6E0900F550FE6E5D
:1013B000F850FF6EFA5012000001816F1200056EA6
:1013C00001500210D8B4E7EF09F0E9EF09F0FFEFA0
:1013D00009F00550020DF350600FD96EDA6A01C0B2
:1013E000DEFF02C0DDFF0550020DF3506C0FD96E19
:1013F000DA6A03C0DEFF04C0DDFF11EF0AF005501A
:10140000020DF350600FD96EDA6A820EDE6E170E8F
:10141000DD6E0550020DF3506C0FD96EDA6ADE6A8C
:10142000DD6A1200106E010E116E000183B31BEF16
:101430000AF01DEF0AF032EF0AF08383000E116EFE
:101440001050D8B426EF0AF028EF0AF02CEF0AF07B
:10145000010E816F2EEF0AF0020E816FC7EC0BF0C8
:1014600019EC0BF01150120020EE02F00A50D926B0
:101470000B50DA22DF500C6E0CC001F0026A0AC079
:10148000D9FF0BC0DAFFDECF03F0DDCF04F0F6ECBE
:101490000AF0000E066E000E076E000E086E000EBB
:1014A000096E34EC0BF0020E1200080EA76E900EBF
:1014B000AB6E240EAC6E080EAF6E020E7D6E000E8B
:1014C000016E000E026E89EC0BF0000E016E000E34
:1014D000026E84EC0BF0000E016E000E026E8EECBC
:1014E0000BF0000E566E12000AC001F00BC002F0A5
:1014F000000E046E010E036EF6EC0AF0000E066E8E
:10150000000E076E000E086E000E096E34EC0BF034
:10151000040E12000AC001F00BC002F0000E046EAF
:10152000020E036EF6EC0AF0000E066E000E076E59
:10153000000E086E000E096E34EC0BF0020E120065
:101540000AC001F00BC002F0000E046E010E036E23
:10155000F6EC0AF0000E066E000E076E000E086E26
:10156000000E096E34EC0BF0020E12000AC001F0FE
:101570000BC002F0000E046E020E036EF6EC0AF0D1
:10158000000E066E000E076E000E086E000E096E4D
:1015900034EC0BF0040E1200010E016E000183B357
:1015A000D4EF0AF0D6EF0AF0E0EF0AF083957C69F9
:1015B000CDEC0BF0C9EC0BF0CBEC0BF082C001F0E2
:1015C00001501200000E896E000E8A6E000E8B6EA6
:1015D000CF0E926E9368BF0E946E1F0E0F015D6F5B
:1015E000070E5C6F000E5B6FF18E1200000183A787
:1015F000FCEF0AF0FEEF0AF007EF0BF001C07DF000
:1016000002C07EF003C07FF004C080F08397120018
:10161000C6BA0DEF0BF00FEF0BF018EF0BF0000E4A
:10162000C76E080EC66E000EC56E310EC86EC68A35
:1016300012001FEF0BF053EC0BF0ACEC09F00001C3
:1016400083B325EF0BF027EF0BF01BEF0BF012002D
:1016500000EE60F0240EEE6AE806FDE1566A000E28
:10166000F86E000191EF07F006C001F007C002F02C
:1016700008C003F009C004F0000EDFEC09F012000E
:10168000C5BC45EF0BF048EF0BF0010E49EF0BF036
:10169000000E1200600ED36E000ED26E000E9B6E16
:1016A000000E9A6E12009EA658EF0BF05AEF0BF048
:1016B00053EF0BF01200000183817C517C25AFECCD
:1016C0000BF0030E120000018381D8807C35AFEC53
:1016D0000BF0050E1200E2EC0AF04AEC0BF055ECB0
:1016E0000AF0120000018393000E826F0E0E1200AA
:1016F00000018391BDEC0BF0040E120000018393F6
:10170000000E826F0E0E120001C052F002C053F0A4
:10171000120001C054F002C055F0120001C050F098
:1017200002C051F01200B6EC0BF0090E1200B6EC3C
:101730000BF00A0E1200B3EC0BF0050E1200C3EC16
:101740000BF0000E1200C5EC0BF0010E1200C5EC00
:101750000BF0020E1200C5EC0BF0010E1200016E30
:1017600001C0C9FF1200C59AC5881200C58AC58884
:1017700012009E861200C9501200C5861200050E86
:101780001200010E1200C5841200C5821200C5802D
:0E17900012009D961200C69A12009E9612003C
:020000040020DA
:08000000FFFFFFFFFFFFFFFF00
:020000040030CA
:0E00000015027F50FF8991FF0FC00FE00F40E7
:00000001FF
